:0300000002019565
:0C019500787FE4F6D8FD7581260201DCBD
:05000300E7E7E7E7E775
:10036B00C108410040000116EA0115CB0211000142
:07037B00021300000117004E
:0A0404008FE7E5E630E1FBAFE722E9
:02038300AE05C5
:10038500C2E9120404AD07AF06120404D2E9AF05B1
:010395002245
:0C03F700C2E9120404E4FF120404D2E97D
:0104030022D6
:0602D8008B238A24892516
:1002DE00C2E9120404AE07E4FDEDC395265017E4FF
:1002EE00FF120404AB23AA24A9258D82758300EF87
:0A02FE0012010C0D80E3D2E9AF06F7
:0103080022D2
:0602A6008B198A1A891B66
:1002AC00C2E9120404AE07E4FDEDC3951C5018AB73
:1002BC0019051BE51BAA1A7002051A14F91200F392
:0B02CC00FF1204040D80E2D2E9AF062F
:0102D7002204
:1003A800E4F520C208C2E87D0F7F20120383D2E85B
:0103B8002222
:10000E008E1D8F1EC2E87D0E7F201203837BFF7A2A
:10001E00007903751C057F2A1202A67B017A0079EE
:10002E0020851E1C7FA01202A6D2E8A204720550E3
:04003E00FA0203A817
:03004B000202218D
:10022100C0E0C083C082C0D075D000C000C001C092
:1002310002C003C005C006C0077F071203F78F2065
:100241003006307B017A0079007526207F61120229
:10025100D8E4FD7FE2120383D2087F601203F79096
:100261000040EFF0D39420400AE4F0FD7FE2120356
:1002710083C208300407E4FD7FE1120383300507E0
:10028100E4FD7FE11203837D707F27120383D00792
:10029100D006D005D003D002D001D000D0D0D0827A
:0502A100D083D0E03223
:06004E008B088A09890AF3
:100054007C07C2E8D2EAD2B9C2E8D2EAE510146059
:100064000F146014146016240370155304F98010DF
:100074005304FB43040280085304FD80004304043A
:10008400E50F600E1460101470135304F74304203A
:10009400800B5304D780065304DF430408AB0BAA38
:1000A4000CA90D751C057F301202A6AB08AA09A97C
:1000B4000A751C057F2A1202A67D017F2212038382
:1000C400E4FD7F21120383E4FD7F24120383AD0E3C
:1000D4007F25120383AD047F261203837D017F3CB9
:0F00E4001203837D077F3D120383D2AF0203A86F
:10039600AB05AA047C037DE812012EAD03AC020274
:0203A600033220
:04033200AB05AA0469
:10033600EF7802C333CE33CED8F9FF7C007D0312AB
:090346000140AD03AC020203B951
:1003B900AB078C118D12751500C374FF9BF51622BE
:03000B00020309E4
:10030900C0E0C0D00514E51470020513C39512E5C9
:10031900139511400975170175130075140085159A
:090329008C85168AD0D0D0E03298
:1003C90075893185158C85168AD2A9D2AFD28C222E
:0E03E90075893185158C85168AD2A9D2AF226E
:03000800D28C2275
:1003D90075893185158C85168AC2A9D2AFC28C223E
:10034F007593F77D197C007F0A7E001203961203C6
:0C035F00C9E51760FCE4F517B28380F5D7
:1001A10002034FE493A3F8E493A34003F68001F222
:1001B10008DFF48029E493A3F85407240CC8C3335F
:1001C100C4540F4420C8834004F456800146F6DF2E
:1001D100E4800B010204081020408090036BE47E50
:1001E100019360BCA3FF543F30E509541FFEE49323
:1001F100A360010ECF54C025E060A840B8E493A3EA
:10020100FAE493A3F8E493A3C8C582C8CAC583CA14
:10021100F0A3C8C582C8CAC583CADFE9DEE780BECC
:01038200007A
:1000F300BB010689828A83E0225002E722BBFE020B
:09010300E32289828A83E493223D
:10010C00F8BB010DE58229F582E5833AF583E8F029
:10011C00225006E92582C8F622BBFE05E92582C8D5
:02012C00F222BD
:10012E00EF8DF0A4A8F0CF8CF0A428CE8DF0A42EE5
:02013E00FE229F
:10014000BC000BBE0029EF8DF084FFADF022E4CCA3
:10015000F875F008EF2FFFEE33FEEC33FCEE9DEC6C
:10016000984005FCEE9DFE0FD5F0E9E4CEFD22EDB2
:10017000F8F5F0EE8420D21CFEADF075F008EF2FFC
:10018000FFED33FD4007985006D5F0F222C398FDED
:050190000FD5F0EA228A
:00000001FF
