:030000000209F4FE
:0C09F400787FE4F6D8FD75812E020A3BE6
:050D4600E7E7E7E7E725
:100C4A00C10841004000012CEA012BCB022200011D
:100C5A0002260000012D0001280002290000012EB1
:010C6A000089
:0A0D3C008FE7E5E630E1FBAFE722A8
:020CCB00AE0574
:100CCD00C2E9120D3CAD07AF06120D3CD2E9AF05DE
:010CDD0022F4
:0C0D2F00C2E9120D3CE4FF120D3CD2E9B9
:010D3B002295
:060BC1008B178A18891948
:100BC700C2E9120D3CAE07E4FDEDC3951A5017E4D8
:100BD700FF120D3CAB17AA18A9198D82758300EF78
:0A0BE70012096B0D80E3D2E9AF069E
:010BF10022E1
:060B8F008B128A13891489
:100B9500C2E9120D3CAE07E4FDEDC395155018AB47
:100BA500120514E514AA137002051314F91209525B
:0B0BB500FF120D3C0D80E2D2E9AF06FC
:010BC0002212
:100CF000E4F520C208C2E87D0F7F20120CCBD2E8B9
:010D000022D0
:100B5B008E088F09C2E87D0E7F20120CCB7BFF7AAB
:100B6B000D79467515057F2A120B8F7B017A00795B
:100B7B00208509157FA0120B8FD2E8A204720550B5
:040B8B00FA020CF06E
:03004B00020A8026
:100A8000C0E0C083C082C0D075D000C000C001C02B
:100A900002C003C005C006C0077F07120D2F8F20BC
:100AA0003006307B017A007900751A207F61120BC5
:100AB000C1E4FD7FE2120CCBD2087F60120D2F90B3
:100AC0000040EFF0D39420400AE4F0FD7FE2120CE6
:100AD000CBC208300407E4FD7FE1120CCB300507E0
:100AE000E4FD7FE1120CCB7D707F27120CCBD00789
:100AF000D006D005D003D002D001D000D0D0D08213
:050B0000D083D0E032BB
:0608AD008B088A09890A8C
:1008B3007C07C2E8D2EAD2B9C2E8D2EAE5101460F2
:1008C3000F146014146016240370155304F9801078
:1008D3005304FB43040280085304FD8000430404D3
:1008E300E50F600E1460101470135304F7430420D3
:1008F300800B5304D780065304DF430408AB0BAAD1
:100903000CA90D7515057F30120B8FAB08AA09A929
:100913000A7515057F2A120B8F7D017F22120CCBDE
:10092300E4FD7F21120CCBE4FD7F24120CCBAD0E32
:100933007F25120CCBAD047F26120CCB7D017F3CAF
:0F094300120CCB7D077F3D120CCBD2AF020CF014
:100CDE00AB05AA047C037DE812098DAD03AC0202BC
:020CEE000C6C8C
:040C6C00AB05AA0426
:100C7000EF7802C333CE33CED8F9FF7C007D031268
:090C8000099FAD03AC02020CA3B4
:100CA3008C228D23C3E49FF525E49EF524F52BE5E3
:040CB30025F52C22D5
:100D0100758931852B8C852C8AD2A9D2AFD28C22C0
:0E0D2100758931852B8C852C8AD2A9D2AF2200
:030D4B00D28C2225
:100D1100758931852B8C852C8AC2A9D2AFC28C22D0
:100B05007593B77594FF750BFF750C0D750D4675CF
:100B15000E5C750F017510037BFF7A0D794612087F
:100B2500AD7D667CEA7F0A7E1A120CA3120D21D2D6
:100B3500867F647E00120CB7C2867F647E00120C2D
:100B4500B7D2867F647E00120CB7C2867F647E00B2
:060B5500120CB7D283224E
:10080000900001E024BC603E14606A24FC60152462
:10081000F7603F241160030208ACE4F526F527F5E4
:1008200029F52A22E4F526F527F529F52AD28C7F29
:1008300064FE120CB79000207431F0A3746FF0A323
:1008400014F07F038061C28CE4F529F52AF526F5C2
:1008500027227F647E00120CB79000207431F0A331
:100860007452F0E529A3F0A3E52AF07F047E00127C
:100870000B5BB286229000207431F0752E0190003F
:1008800040E0FFE52EC39F501E7400252EF582E444
:100890003400F583E0FE7420252EF582E43400F563
:0D08A00083EEF0052E80D77E00120B5B2248
:100BF200120B0520940975280185262985272A309C
:100C020008F1C208E4F520900000E0B430051208B3
:0F0C12000080E0900000E0B431D912080080D4D7
:03000B00020C21C3
:100C2100C0E0C0D00527E52770020526C39523E55E
:100C31002695224009752D01752600752700852B03
:090C41008C852C8AD0D0D0E03261
:0B0C89007FFA7E00120C947FFA7E00C0
:0F0C94000000000000EF1F70011E144E70F222CE
:100CB700AD07AC06120C89120C89ED1D70011C14CE
:040CC7004C70F1225A
:100A0000020BF2E493A3F8E493A34003F68001F20F
:100A100008DFF48029E493A3F85407240CC8C333F7
:100A2000C4540F4420C8834004F456800146F6DFC6
:100A3000E4800B0102040810204080900C4AE47E00
:100A4000019360BCA3FF543F30E509541FFEE493BB
:100A5000A360010ECF54C025E060A840B8E493A382
:100A6000FAE493A3F8E493A3C8C582C8CAC583CAAD
:100A7000F0A3C8C582C8CAC583CADFE9DEE780BE65
:010C6B000088
:10095200BB010689828A83E0225002E722BBFE02A3
:09096200E32289828A83E49322D6
:10096B00F8BB010DE58229F582E5833AF583E8F0C2
:10097B00225006E92582C8F622BBFE05E92582C86E
:02098B00F22256
:10098D00EF8DF0A4A8F0CF8CF0A428CE8DF0A42E7E
:02099D00FE2238
:10099F00BC000BBE0029EF8DF084FFADF022E4CC3C
:1009AF00F875F008EF2FFFEE33FEEC33FCEE9DEC05
:1009BF00984005FCEE9DFE0FD5F0E9E4CEFD22ED4B
:1009CF00F8F5F0EE8420D21CFEADF075F008EF2F95
:1009DF00FFED33FD4007985006D5F0F222C398FD86
:0509EF000FD5F0EA2223
:00000001FF
