:03000000020A04ED
:0C0A0400787FE4F6D8FD75812C020A4BC7
:050D6300E7E7E7E7E708
:100C6B00C10841004000012AEA0129CB0222000100
:100C7B0002240000012B0001260002270000012C9A
:010C8B000068
:0A0D59008FE7E5E630E1FBAFE7228B
:020CD800AE0567
:100CDA00C2E9120D59AD07AF06120D59D2E9AF0597
:010CEA0022E7
:0C0D4C00C2E9120D59E4FF120D59D2E962
:010D58002278
:060BE2008B178A18891927
:100BE800C2E9120D59AE07E4FDEDC3951A5017E49A
:100BF800FF120D59AB17AA18A9198D82758300EF3A
:0A0C080012097B0D80E3D2E9AF066C
:010C120022BF
:060BB0008B128A13891468
:100BB600C2E9120D59AE07E4FDEDC395155018AB09
:100BC600120514E514AA137002051314F91209622A
:0B0BD600FF120D590D80E2D2E9AF06BE
:010BE10022F1
:100CFD00E4F520C208C2E87D0F7F20120CD8D2E89F
:010D0D0022C3
:100B7C008E088F09C2E87D0E7F20120CD87BFF7A7D
:100B8C000D79637515057F2A120BB07B017A0079FC
:100B9C00208509157FA0120BB0D2E8A20472055073
:040BAC00FA020CFD40
:03004B00020A9016
:100A9000C0E0C083C082C0D075D000C000C001C01B
:100AA00002C003C005C006C0077F07120D4C8F208F
:100AB0003006307B017A007900751A207F61120BB5
:100AC000E2E4FD7FE2120CD8D2087F60120D4C9058
:100AD0000040EFF0D39420400AE4F0FD7FE2120CD6
:100AE000D8C208300407E4FD7FE1120CD8300507B6
:100AF000E4FD7FE1120CD87D707F27120CD8D0075F
:100B0000D006D005D003D002D001D000D0D0D08202
:050B1000D083D0E032AB
:0608BD008B088A09890A7C
:1008C3007C07C2E8D2EAD2B9C2E8D2EAE5101460E2
:1008D3000F146014146016240370155304F9801068
:1008E3005304FB43040280085304FD8000430404C3
:1008F300E50F600E1460101470135304F7430420C3
:10090300800B5304D780065304DF430408AB0BAAC0
:100913000CA90D7515057F30120BB0AB08AA09A9F8
:100923000A7515057F2A120BB07D017F22120CD8A0
:10093300E4FD7F21120CD8E4FD7F24120CD8AD0E08
:100943007F25120CD8AD047F26120CD87D017F3C85
:0F095300120CD87D077F3D120CD8D2AF020CFDDD
:100CEB00AB05AA047C037DE812099DAD03AC02029F
:020CFB000C8D5E
:040C8D00AB05AA0405
:100C9100EF7802C333CE33CED8F9FF7C007D031247
:090CA10009AFAD03AC02020D0E17
:100D0E00AB078C228D23752900C374FF9BF52A2215
:100D1E0075893185298C852A8AD2A9D2AFD28C22A7
:0E0D3E0075893185298C852A8AD2A9D2AF22E7
:030D6800D28C2208
:100D2E0075893185298C852A8AC2A9D2AFC28C22B7
:100B15007593F77594FF750BFF750C0D750D637562
:100B25000E5C750F017510037BFF7A0D7963120852
:100B3500BD7D667CEA7F0A7E1A120D0E120D3ED22D
:100B4500837F0A7E00120CC4C2837F0A7E00120CCA
:100B5500C4D2837F0A7E00120CC4C283E4FFFE1256
:100B65000CC49000207431F0A3744FF0A3746EF0A0
:070B75007F037E00020B7CF0
:10080000900001E024BE602E24FE601E14606F2460
:10081000F9606824FA6041240960030208BCE4F529
:1008200024F525F527F528D28C22C28CE4F527F58E
:1008300028F524F525227F0A7E00120CC4900020A2
:100840007431F0A37442F0A3E526F07F037E00121A
:100850000B7CE4F526B283227F0A7E00120CC49042
:1008600000207431F0A37452F0E527A3F0A3E5282B
:10087000F07F047E00120B7CB28322B283227F0AB7
:100880007E00120CC49000207431F0752C01900091
:1008900040E0FFE52CC39F501E7400252CF582E438
:1008A0003400F583E0FE7420252CF582E43400F555
:0D08B00083EEF0052C80D77E00120B7C2219
:100C1300120B152094097526018524278525283074
:100C230008F1C208E4F520900000E0B43005120892
:0F0C33000080E0900000E0B431D912080080D4B6
:03000B00020C42A2
:100C4200C0E0C0D00525E52570020524C39523E543
:100C52002495224009752B017524007525008529EC
:090C62008C852A8AD0D0D0E03242
:0B0CAA007FFA7E00120CB57FFA7E007E
:0F0CB5000000000000EF1F70011E144E70F222AD
:100CC400AD07AC06120CAA120CAAED1D70011C147F
:040CD4004C70F1224D
:100A1000020C13E493A3F8E493A34003F68001F2DD
:100A200008DFF48029E493A3F85407240CC8C333E7
:100A3000C4540F4420C8834004F456800146F6DFB6
:100A4000E4800B0102040810204080900C6BE47ECF
:100A5000019360BCA3FF543F30E509541FFEE493AB
:100A6000A360010ECF54C025E060A840B8E493A372
:100A7000FAE493A3F8E493A3C8C582C8CAC583CA9D
:100A8000F0A3C8C582C8CAC583CADFE9DEE780BE55
:010C8C000067
:10096200BB010689828A83E0225002E722BBFE0293
:09097200E32289828A83E49322C6
:10097B00F8BB010DE58229F582E5833AF583E8F0B2
:10098B00225006E92582C8F622BBFE05E92582C85E
:02099B00F22246
:10099D00EF8DF0A4A8F0CF8CF0A428CE8DF0A42E6E
:0209AD00FE2228
:1009AF00BC000BBE0029EF8DF084FFADF022E4CC2C
:1009BF00F875F008EF2FFFEE33FEEC33FCEE9DECF5
:1009CF00984005FCEE9DFE0FD5F0E9E4CEFD22ED3B
:1009DF00F8F5F0EE8420D21CFEADF075F008EF2F85
:1009EF00FFED33FD4007985006D5F0F222C398FD76
:0509FF000FD5F0EA2213
:00000001FF
