:030000000209FEF4
:0C09FE00787FE4F6D8FD75812E020A45D2
:050D5400E7E7E7E7E717
:100C5800C10841004000012CEA012BCB022200010F
:100C680002260000012D0001280002290000012EA3
:010C7800007B
:0A0D4A008FE7E5E630E1FBAFE7229A
:020CD900AE0566
:100CDB00C2E9120D4AAD07AF06120D4AD2E9AF05B4
:010CEB0022E6
:0C0D3D00C2E9120D4AE4FF120D4AD2E98F
:010D49002287
:060BFE008B178A1889190B
:100C0400C2E9120D4AAE07E4FDEDC3951A5017E48C
:100C1400FF120D4AAB17AA18A9198D82758300EF2C
:0A0C24001209750D80E3D2E9AF0656
:010C2E0022A3
:060BCC008B128A1389144C
:100BD200C2E9120D4AAE07E4FDEDC395155018ABFC
:100BE200120514E514AA137002051314F912095C14
:0B0BF200FF120D4A0D80E2D2E9AF06B1
:010BFD0022D5
:100CFE00E4F520C208C2E87D0F7F20120CD9D2E89D
:010D0E0022C2
:100B65008E088F09C2E87D0E7F20120CD97BFF7A93
:100B75000D79547515057F2A120BCC7B017A007906
:100B8500208509157FA0120BCCD2E8A2047205506E
:040B9500FA020CFE56
:03004B00020A8A1C
:100A8A00C0E0C083C082C0D075D000C000C001C021
:100A9A0002C003C005C006C0077F07120D3D8F20A4
:100AAA003006307B017A007900751A207F61120BBB
:100ABA00FEE4FD7FE2120CD9D2087F60120D3D9050
:100ACA000040EFF0D39420400AE4F0FD7FE2120CDC
:100ADA00D9C208300407E4FD7FE1120CD9300507BA
:100AEA00E4FD7FE1120CD97D707F27120CD9D00763
:100AFA00D006D005D003D002D001D000D0D0D08209
:050B0A00D083D0E032B1
:0608B7008B088A09890A82
:1008BD007C07C2E8D2EAD2B9C2E8D2EAE5101460E8
:1008CD000F146014146016240370155304F980106E
:1008DD005304FB43040280085304FD8000430404C9
:1008ED00E50F600E1460101470135304F7430420C9
:1008FD00800B5304D780065304DF430408AB0BAAC7
:10090D000CA90D7515057F30120BCCAB08AA09A9E2
:10091D000A7515057F2A120BCC7D017F22120CD989
:10092D00E4FD7F21120CD9E4FD7F24120CD9AD0E0C
:10093D007F25120CD9AD047F26120CD97D017F3C89
:0F094D00120CD97D077F3D120CD9D2AF020CFEE0
:100CEC00AB05AA047C037DE8120997AD03AC0202A4
:020CFC000C7A70
:040C7A00AB05AA0418
:100C7E00EF7802C333CE33CED8F9FF7C007D03125A
:090C8E0009A9AD03AC02020CB18E
:100CB1008C228D23C3E49FF525E49EF524F52BE5D5
:040CC10025F52C22C7
:100D0F00758931852B8C852C8AD2A9D2AFD28C22B2
:0E0D2F00758931852B8C852C8AD2A9D2AF22F2
:030D5900D28C2217
:100D1F00758931852B8C852C8AC2A9D2AFC28C22C2
:100B0F007593D77594F3750BFF750C0D750D5475A3
:100B1F000E5C750F017510037BFF7A0D7954120867
:100B2F00B77D667CEA7F0A7E1A120CB1120D2FD2A6
:100B3F00857F647E00120CC5C2857F647E00120C17
:100B4F00C5D2857F647E00120CC5C2857F647E008E
:060B5F00120CC5D2832236
:10080000900001E024BC604614607424FC6017244E
:10081000F76049241160030208B6E4F526F527F5D0
:1008200029F52AC29222E4F526F527F529F52AD2E0
:100830008C7F64FE120CC59000207435F0A3746F99
:10084000F0A314F07F037E00120B65D29222C28CBB
:10085000E4F529F52AF526F527C292227F647E0069
:10086000120CC59000207435F0A37452F0E529A352
:10087000F0A3E52AF07F047E00120B65B28522907A
:1008800000207435F0752E01900040E0FFE52EC386
:100890009F501E7400252EF582E43400F583E0FE9F
:1008A0007420252EF582E43400F583EEF0052E80C9
:0708B000D77E00120B652248
:100B9900120B0FA294929330940975280185262986
:100BA90085272A3008EDC208E4F520900000E0B45A
:100BB900300512080080DC900000E0B435D5120839
:030BC9000080D0D9
:03000B00020C2FB5
:100C2F00C0E0C0D00527E52770020526C39523E550
:100C3F002695224009752D01752600752700852BF5
:090C4F008C852C8AD0D0D0E03253
:0B0C97007FFA7E00120CA27FFA7E00A4
:0F0CA2000000000000EF1F70011E144E70F222C0
:100CC500AD07AC06120C97120C97ED1D70011C14A4
:040CD5004C70F1224C
:100A0A00020B99E493A3F8E493A34003F68001F25E
:100A1A0008DFF48029E493A3F85407240CC8C333ED
:100A2A00C4540F4420C8834004F456800146F6DFBC
:100A3A00E4800B0102040810204080900C58E47EE8
:100A4A00019360BCA3FF543F30E509541FFEE493B1
:100A5A00A360010ECF54C025E060A840B8E493A378
:100A6A00FAE493A3F8E493A3C8C582C8CAC583CAA3
:100A7A00F0A3C8C582C8CAC583CADFE9DEE780BE5B
:010C7900007A
:10095C00BB010689828A83E0225002E722BBFE0299
:09096C00E32289828A83E49322CC
:10097500F8BB010DE58229F582E5833AF583E8F0B8
:10098500225006E92582C8F622BBFE05E92582C864
:02099500F2224C
:10099700EF8DF0A4A8F0CF8CF0A428CE8DF0A42E74
:0209A700FE222E
:1009A900BC000BBE0029EF8DF084FFADF022E4CC32
:1009B900F875F008EF2FFFEE33FEEC33FCEE9DECFB
:1009C900984005FCEE9DFE0FD5F0E9E4CEFD22ED41
:1009D900F8F5F0EE8420D21CFEADF075F008EF2F8B
:1009E900FFED33FD4007985006D5F0F222C398FD7C
:0509F9000FD5F0EA2219
:00000001FF
