:030000000209F4FE
:0C09F400787FE4F6D8FD75812C020A3BE8
:050D4200E7E7E7E7E729
:100C4A00C10841004000012AEA0129CB0222000121
:100C5A0002240000012B0001260002270000012CBB
:010C6A000089
:0A0D38008FE7E5E630E1FBAFE722AC
:020CB700AE0588
:100CB900C2E9120D38AD07AF06120D38D2E9AF05FA
:010CC9002208
:0C0D2B00C2E9120D38E4FF120D38D2E9C5
:010D37002299
:060BC1008B178A18891948
:100BC700C2E9120D38AE07E4FDEDC3951A5017E4DC
:100BD700FF120D38AB17AA18A9198D82758300EF7C
:0A0BE70012096B0D80E3D2E9AF069E
:010BF10022E1
:060B8F008B128A13891489
:100B9500C2E9120D38AE07E4FDEDC395155018AB4B
:100BA500120514E514AA137002051314F91209525B
:0B0BB500FF120D380D80E2D2E9AF0600
:010BC0002212
:100CDC00E4F520C208C2E87D0F7F20120CB7D2E8E1
:010CEC0022E5
:100B5B008E088F09C2E87D0E7F20120CB77BFF7ABF
:100B6B000D79427515057F2A120B8F7B017A00795F
:100B7B00208509157FA0120B8FD2E8A204720550B5
:040B8B00FA020CDC82
:03004B00020A8026
:100A8000C0E0C083C082C0D075D000C000C001C02B
:100A900002C003C005C006C0077F07120D2B8F20C0
:100AA0003006307B017A007900751A207F61120BC5
:100AB000C1E4FD7FE2120CB7D2087F60120D2B90CB
:100AC0000040EFF0D39420400AE4F0FD7FE2120CE6
:100AD000B7C208300407E4FD7FE1120CB730050708
:100AE000E4FD7FE1120CB77D707F27120CB7D007B1
:100AF000D006D005D003D002D001D000D0D0D08213
:050B0000D083D0E032BB
:0608AD008B088A09890A8C
:1008B3007C07C2E8D2EAD2B9C2E8D2EAE5101460F2
:1008C3000F146014146016240370155304F9801078
:1008D3005304FB43040280085304FD8000430404D3
:1008E300E50F600E1460101470135304F7430420D3
:1008F300800B5304D780065304DF430408AB0BAAD1
:100903000CA90D7515057F30120B8FAB08AA09A929
:100913000A7515057F2A120B8F7D017F22120CB7F2
:10092300E4FD7F21120CB7E4FD7F24120CB7AD0E5A
:100933007F25120CB7AD047F26120CB77D017F3CD7
:0F094300120CB77D077F3D120CB7D2AF020CDC50
:100CCA00AB05AA047C037DE812098DAD03AC0202D0
:020CDA000C6CA0
:040C6C00AB05AA0426
:100C7000EF7802C333CE33CED8F9FF7C007D031268
:090C8000099FAD03AC02020CED6A
:100CED00AB078C228D23752900C374FF9BF52A2237
:100CFD0075893185298C852A8AD2A9D2AFD28C22C9
:0E0D1D0075893185298C852A8AD2A9D2AF2208
:030D4700D28C2229
:100D0D0075893185298C852A8AC2A9D2AFC28C22D8
:100B05007593B77594FF750BFF750C0D750D4275D3
:100B15000E5C750F017510037BFF7A0D7942120883
:100B2500AD7D667CEA7F0A7E1A120CED120D1DD290
:100B3500867F647E00120CA3C2867F647E00120C41
:100B4500A3D2867F647E00120CA3C2867F647E00DA
:060B5500120CA3D2832262
:10080000900001E024BC603E14606A24FC60152462
:10081000F7603F241160030208ACE4F524F525F5E8
:1008200027F52822E4F524F525F527F528D28C7F35
:1008300064FE120CA39000207435F0A3746FF0A333
:1008400014F07F038061C28CE4F527F528F524F5C8
:1008500025227F647E00120CA39000207435F0A343
:100860007452F0E527A3F0A3E528F07F047E001280
:100870000B5BB286229000207435F0752C0190003D
:1008800040E0FFE52CC39F501E7400252CF582E448
:100890003400F583E0FE7420252CF582E43400F565
:0D08A00083EEF0052C80D77E00120B5B224A
:100BF200120B0520940975260185242785252830A6
:100C020008F1C208E4F520900000E0B430051208B3
:0F0C12000080E0900000E0B435D912080080D4D3
:03000B00020C21C3
:100C2100C0E0C0D00525E52570020524C39523E564
:100C31002495224009752B0175240075250085290D
:090C41008C852A8AD0D0D0E03263
:0B0C89007FFA7E00120C947FFA7E00C0
:0F0C94000000000000EF1F70011E144E70F222CE
:100CA300AD07AC06120C89120C89ED1D70011C14E2
:040CB3004C70F1226E
:100A0000020BF2E493A3F8E493A34003F68001F20F
:100A100008DFF48029E493A3F85407240CC8C333F7
:100A2000C4540F4420C8834004F456800146F6DFC6
:100A3000E4800B0102040810204080900C4AE47E00
:100A4000019360BCA3FF543F30E509541FFEE493BB
:100A5000A360010ECF54C025E060A840B8E493A382
:100A6000FAE493A3F8E493A3C8C582C8CAC583CAAD
:100A7000F0A3C8C582C8CAC583CADFE9DEE780BE65
:010C6B000088
:10095200BB010689828A83E0225002E722BBFE02A3
:09096200E32289828A83E49322D6
:10096B00F8BB010DE58229F582E5833AF583E8F0C2
:10097B00225006E92582C8F622BBFE05E92582C86E
:02098B00F22256
:10098D00EF8DF0A4A8F0CF8CF0A428CE8DF0A42E7E
:02099D00FE2238
:10099F00BC000BBE0029EF8DF084FFADF022E4CC3C
:1009AF00F875F008EF2FFFEE33FEEC33FCEE9DEC05
:1009BF00984005FCEE9DFE0FD5F0E9E4CEFD22ED4B
:1009CF00F8F5F0EE8420D21CFEADF075F008EF2F95
:1009DF00FFED33FD4007985006D5F0F222C398FD86
:0509EF000FD5F0EA2223
:00000001FF
