:03000000020A04ED
:0C0A0400787FE4F6D8FD75812C020A4BC7
:050D6400E7E7E7E7E707
:100C6C00C10841004000012AEA0129CB02220001FF
:100C7C0002240000012B0001260002270000012C99
:010C8C000067
:0A0D5A008FE7E5E630E1FBAFE7228A
:020CD900AE0566
:100CDB00C2E9120D5AAD07AF06120D5AD2E9AF0594
:010CEB0022E6
:0C0D4D00C2E9120D5AE4FF120D5AD2E95F
:010D59002277
:060BE3008B178A18891926
:100BE900C2E9120D5AAE07E4FDEDC3951A5017E498
:100BF900FF120D5AAB17AA18A9198D82758300EF38
:0A0C090012097B0D80E3D2E9AF066B
:010C130022BE
:060BB1008B128A13891467
:100BB700C2E9120D5AAE07E4FDEDC395155018AB07
:100BC700120514E514AA137002051314F912096229
:0B0BD700FF120D5A0D80E2D2E9AF06BC
:010BE20022F0
:100CFE00E4F520C208C2E87D0F7F20120CD9D2E89D
:010D0E0022C2
:100B7D008E088F09C2E87D0E7F20120CD97BFF7A7B
:100B8D000D79647515057F2A120BB17B017A0079F9
:100B9D00208509157FA0120BB1D2E8A20472055071
:040BAD00FA020CFE3E
:03004B00020A9016
:100A9000C0E0C083C082C0D075D000C000C001C01B
:100AA00002C003C005C006C0077F07120D4D8F208E
:100AB0003006307B017A007900751A207F61120BB5
:100AC000E3E4FD7FE2120CD9D2087F60120D4D9055
:100AD0000040EFF0D39420400AE4F0FD7FE2120CD6
:100AE000D9C208300407E4FD7FE1120CD9300507B4
:100AF000E4FD7FE1120CD97D707F27120CD9D0075D
:100B0000D006D005D003D002D001D000D0D0D08202
:050B1000D083D0E032AB
:0608BD008B088A09890A7C
:1008C3007C07C2E8D2EAD2B9C2E8D2EAE5101460E2
:1008D3000F146014146016240370155304F9801068
:1008E3005304FB43040280085304FD8000430404C3
:1008F300E50F600E1460101470135304F7430420C3
:10090300800B5304D780065304DF430408AB0BAAC0
:100913000CA90D7515057F30120BB1AB08AA09A9F7
:100923000A7515057F2A120BB17D017F22120CD99E
:10093300E4FD7F21120CD9E4FD7F24120CD9AD0E06
:100943007F25120CD9AD047F26120CD97D017F3C83
:0F095300120CD97D077F3D120CD9D2AF020CFEDA
:100CEC00AB05AA047C037DE812099DAD03AC02029E
:020CFC000C8E5C
:040C8E00AB05AA0404
:100C9200EF7802C333CE33CED8F9FF7C007D031246
:090CA20009AFAD03AC02020D0F15
:100D0F00AB078C228D23752900C374FF9BF52A2214
:100D1F0075893185298C852A8AD2A9D2AFD28C22A6
:0E0D3F0075893185298C852A8AD2A9D2AF22E6
:030D6900D28C2207
:100D2F0075893185298C852A8AC2A9D2AFC28C22B6
:100B15007593F77594FF750BFF750C0D750D647561
:100B25000E5C750F017510037BFF7A0D7964120851
:100B3500BD7D667CEA7F0A7E1A120D0F120D3FD22B
:100B4500837F0A7E00120CC5C2837F0A7E00120CC9
:100B5500C5D2837F0A7E00120CC5C2837F0A7E0040
:100B6500120CC59000207435F0A3744FF0A3746E79
:080B7500F07F037E00020B7DFE
:10080000900001E024BE602E24FE601E14606F2460
:10081000F9606824FA6041240960030208BCE4F529
:1008200024F525F527F528D28C22C28CE4F527F58E
:1008300028F524F525227F0A7E00120CC5900020A1
:100840007435F0A37442F0A3E526F07F037E001216
:100850000B7DE4F526B283227F0A7E00120CC59040
:1008600000207435F0A37452F0E527A3F0A3E52827
:10087000F07F047E00120B7DB28322B283227F0AB6
:100880007E00120CC59000207435F0752C0190008C
:1008900040E0FFE52CC39F501E7400252CF582E438
:1008A0003400F583E0FE7420252CF582E43400F555
:0D08B00083EEF0052C80D77E00120B7D2218
:100C1400120B152094097526018524278525283073
:100C240008F1C208E4F520900000E0B43005120891
:0F0C34000080E0900000E0B435D912080080D4B1
:03000B00020C43A1
:100C4300C0E0C0D00525E52570020524C39523E542
:100C53002495224009752B017524007525008529EB
:090C63008C852A8AD0D0D0E03241
:0B0CAB007FFA7E00120CB67FFA7E007C
:0F0CB6000000000000EF1F70011E144E70F222AC
:100CC500AD07AC06120CAB120CABED1D70011C147C
:040CD5004C70F1224C
:100A1000020C14E493A3F8E493A34003F68001F2DC
:100A200008DFF48029E493A3F85407240CC8C333E7
:100A3000C4540F4420C8834004F456800146F6DFB6
:100A4000E4800B0102040810204080900C6CE47ECE
:100A5000019360BCA3FF543F30E509541FFEE493AB
:100A6000A360010ECF54C025E060A840B8E493A372
:100A7000FAE493A3F8E493A3C8C582C8CAC583CA9D
:100A8000F0A3C8C582C8CAC583CADFE9DEE780BE55
:010C8D000066
:10096200BB010689828A83E0225002E722BBFE0293
:09097200E32289828A83E49322C6
:10097B00F8BB010DE58229F582E5833AF583E8F0B2
:10098B00225006E92582C8F622BBFE05E92582C85E
:02099B00F22246
:10099D00EF8DF0A4A8F0CF8CF0A428CE8DF0A42E6E
:0209AD00FE2228
:1009AF00BC000BBE0029EF8DF084FFADF022E4CC2C
:1009BF00F875F008EF2FFFEE33FEEC33FCEE9DECF5
:1009CF00984005FCEE9DFE0FD5F0E9E4CEFD22ED3B
:1009DF00F8F5F0EE8420D21CFEADF075F008EF2F85
:1009EF00FFED33FD4007985006D5F0F222C398FD76
:0509FF000FD5F0EA2213
:00000001FF
