:050B9800E7E7E7E7E7D5
:050B9200C10801620032
:0A0B80008FE7E5E630E1FBAFE72266
:020B4400AE05FC
:100B4600C2E9120B80AD07AF06120B80D2E9AF05E2
:010B5600227C
:0C0B6800C2E9120B80E4FF120B80D2E9FE
:010B7400225E
:060A85008B178A18891985
:100A8B00C2E9120B80AE07E4FDEDC3951A5017E4D3
:100A9B00FF120B80AB17AA18A9198D82758300EF73
:0A0AAB001209FD0D80E3D2E9AF0649
:010AB500221E
:060A53008B128A138914C6
:100A5900C2E9120B80AE07E4FDEDC395155018AB42
:100A6900120514E514AA137002051314F91209B733
:0B0A7900FF120B800D80E2D2E9AF06F7
:010A8400224F
:100B5700E4F520C208C2E87D0F7F20120B44D2E8DB
:010B6700226B
:100A1F008E1E8F1FC2E87D0E7F20120B447BFF7A44
:100A2F000B79987515057F2A120A537B007A007986
:100A3F0042851F157FA0120A53D2E8A204720550F7
:040A4F00FA020B5745
:03004B0002093176
:10093100C0E0C083C082C0D075D000C000C001C07B
:1009410002C003C005C006C0077F07120B688F20D5
:100951003006317B007A007922751A207F61120AF4
:1009610085E4FD7FE2120B44D2087F60120B688F91
:1009710062E562D39420400C756200E4FD7FE212CF
:100981000B44C208300407E4FD7FE1120B4430053B
:1009910007E4FD7FE1120B447D707F27120B44D0E9
:1009A10007D006D005D003D002D001D000D0D0D0DE
:0609B10082D083D0E03289
:060800008B088A09890A39
:100806007C07C2E8D2EAD2B9C2E8D2EAE51014609F
:100816000F146014146016240370155304F9801025
:100826005304FB43040280085304FD800043040480
:10083600E50F600E1460101470135304F743042080
:10084600800B5304D780065304DF430408AB0BAA7E
:100856000CA90D7515057F30120A53AB08AA09A914
:100866000A7515057F2A120A537D017F22120B4451
:10087600E4FD7F21120B44E4FD7F24120B44AD0EF0
:100886007F25120B44AD047F26120B447D017F3C6D
:0F089600120B447D077F3D120B44D2AF020B576C
:060AB6008B1B8A1C891D48
:100ABC00120B1BE4FEEEC39F5018AB1BAA1CA91D06
:100ACC008E827583001209D0FD74422EF8A6050E95
:0A0ADC0080E37E00120A1F020B5790
:0B0B7500E4F5937594FFC283D2822246
:100AE600308212D2837FF47E01120B30C2837FF4F0
:0B0AF6007E01120B30208202C283221E
:080B8A00120B75120AE680FB54
:0B0B01007FFA7E00120B0C7FFA7E00D2
:0F0B0C000000000000EF1F70011E144E70F22257
:100B3000AD07AC06120B01120B01ED1D70011C1468
:040B40004C70F122E2
:030000000208A54E
:0C08A500787FE4F6D8FD7581620208EC53
:1009B700BB010689828A83E0225002E722BBFE023E
:0909C700E32289828A83E4932271
:1009D000BB010CE58229F582E5833AF583E02250DC
:1009E00006E92582F8E622BBFE06E92582F8E22226
:0D09F000E58229F582E5833AF583E4932240
:1009FD00F8BB010DE58229F582E5833AF583E8F030
:100A0D00225006E92582C8F622BBFE05E92582C8DB
:020A1D00F222C3
:100B1B00E4FFFE1209B7600C0FEF70010E09E970CC
:050B2B00F20A80EF2238
:1008B100020B8AE493A3F8E493A34003F68001F2C8
:1008C10008DFF48029E493A3F85407240CC8C33348
:1008D100C4540F4420C8834004F456800146F6DF17
:1008E100E4800B0102040810204080900B92E47E0A
:1008F100019360BCA3FF543F30E509541FFEE4930C
:10090100A360010ECF54C025E060A840B8E493A3D2
:10091100FAE493A3F8E493A3C8C582C8CAC583CAFD
:10092100F0A3C8C582C8CAC583CADFE9DEE780BEB5
:010B9700005D
:00000001FF
