:03000000020252A7
:0C025200787FE4F6D8FD75812C0202993B
:05000300E7E7E7E7E775
:10048600C10841004000012AEA0129CB02220001ED
:1004960002240000012B0001260002270000012C87
:0104A6000055
:0A0574008FE7E5E630E1FBAFE72278
:0204F300AE0554
:1004F500C2E9120574AD07AF06120574D2E9AF055E
:0105050022D3
:0C056700C2E9120574E4FF120574D2E929
:010573002265
:0603FD008B178A18891914
:10040300C2E9120574AE07E4FDEDC3951A5017E473
:10041300FF120574AB17AA18A9198D82758300EF13
:0A0423001201C90D80E3D2E9AF0613
:01042D0022AC
:0603CB008B128A13891455
:1003D100C2E9120574AE07E4FDEDC395155018ABE3
:1003E100120514E514AA137002051314F91201B0D1
:0B03F100FF1205740D80E2D2E9AF0698
:0103FC0022DE
:10051800E4F520C208C2E87D0F7F201204F3D2E878
:0105280022B0
:10000E008E088F09C2E87D0E7F201204F37BFF7AE3
:10001E000079037515057F2A1203CB7B017A0079CF
:10002E00208509157FA01203CBD2E8A204720550D9
:04003E00FA020518A5
:03004B000202DED0
:1002DE00C0E0C083C082C0D075D000C000C001C0D5
:1002EE0002C003C005C006C0077F071205678F2036
:1002FE003006307B017A007900751A207F61120377
:10030E00FDE4FD7FE21204F3D2087F6012056790D0
:10031E000040EFF0D39420400AE4F0FD7FE2120497
:10032E00F3C208300407E4FD7FE11204F330050741
:10033E00E4FD7FE11204F37D707F271204F3D007F2
:10034E00D006D005D003D002D001D000D0D0D082BC
:05035E00D083D0E03265
:06010B008B088A09890A35
:100111007C07C2E8D2EAD2B9C2E8D2EAE51014609B
:100121000F146014146016240370155304F9801021
:100131005304FB43040280085304FD80004304047C
:10014100E50F600E1460101470135304F74304207C
:10015100800B5304D780065304DF430408AB0BAA7A
:100161000CA90D7515057F301203CBAB08AA09A99F
:100171000A7515057F2A1203CB7D017F221204F334
:10018100E4FD7F211204F3E4FD7F241204F3AD0E9C
:100191007F251204F3AD047F261204F37D017F3C19
:0F01A1001204F37D077F3D1204F3D2AF0205185D
:10050600AB05AA047C037DE81201EBAD03AC020245
:0205160004A837
:0404A800AB05AA04F2
:1004AC00EF7802C333CE33CED8F9FF7C007D031234
:0904BC0001FDAD03AC02020529AB
:10052900AB078C228D23752900C374FF9BF52A2202
:1005390075893185298C852A8AD2A9D2AFD28C2294
:0E05590075893185298C852A8AD2A9D2AF22D4
:03000800D28C2275
:1005490075893185298C852A8AC2A9D2AFC28C22A4
:100363007593F77594FF750BFF750C00750D037589
:100373000E5C750F017510037BFF7A007903120180
:100383000B7D667CEA7F0A7E1A120529120559D273
:10039300837FF47E011204DFC2837FF47E011204A3
:1003A300DFD2837FF47E011204DFC2837FF47E01F8
:1003B3001204DF9000207431F0A3744FF0A3746E25
:0803C300F07F037E0002000E32
:10004E00900001E024BE602E24FE601E14606F241A
:10005E00F9606824FA60412409600302010AE4F59C
:10006E0024F525F527F528D28C22C28CE4F527F548
:10007E0028F524F525227F647E001204DF900020EF
:10008E007431F0A37442F0A3E526F07F037E0012D4
:10009E00000EE4F526B283227F647E001204DF9008
:1000AE0000207431F0A37452F0E527A3F0A3E528E5
:1000BE00F07F047E0012000EB28322B283227F6490
:1000CE007E001204DF9000207431F0752C01900038
:1000DE0040E0FFE52CC39F501E7400252CF582E4F2
:1000EE003400F583E0FE7420252CF582E43400F50F
:0D00FE0083EEF0052C80D77E0012000E224C
:10042E00120363209409752601852427852528301B
:10043E0008F1C208E4F520900000E0B43005120087
:0F044E004E80E0900000E0B431D912004E80D40F
:03000B0002045D8F
:10045D00C0E0C0D00525E52570020524C39523E530
:10046D002495224009752B017524007525008529D9
:09047D008C852A8AD0D0D0E0322F
:0B04C5007FFA7E001204D07FFA7E0058
:0F04D0000000000000EF1F70011E144E70F2229A
:1004DF00AD07AC061204C51204C5ED1D70011C1446
:0404EF004C70F1223A
:10025E0002042EE493A3F8E493A34003F68001F284
:10026E0008DFF48029E493A3F85407240CC8C333A1
:10027E00C4540F4420C8834004F456800146F6DF70
:10028E00E4800B0102040810204080900486E47E76
:10029E00019360BCA3FF543F30E509541FFEE49365
:1002AE00A360010ECF54C025E060A840B8E493A32C
:1002BE00FAE493A3F8E493A3C8C582C8CAC583CA57
:1002CE00F0A3C8C582C8CAC583CADFE9DEE780BE0F
:0104A7000054
:1001B000BB010689828A83E0225002E722BBFE024D
:0901C000E32289828A83E4932280
:1001C900F8BB010DE58229F582E5833AF583E8F06C
:1001D900225006E92582C8F622BBFE05E92582C818
:0201E900F22200
:1001EB00EF8DF0A4A8F0CF8CF0A428CE8DF0A42E28
:0201FB00FE22E2
:1001FD00BC000BBE0029EF8DF084FFADF022E4CCE6
:10020D00F875F008EF2FFFEE33FEEC33FCEE9DECAE
:10021D00984005FCEE9DFE0FD5F0E9E4CEFD22EDF4
:10022D00F8F5F0EE8420D21CFEADF075F008EF2F3E
:10023D00FFED33FD4007985006D5F0F222C398FD2F
:05024D000FD5F0EA22CC
:00000001FF
