:03000000020242B7
:0C024200787FE4F6D8FD75812C0202895B
:05000300E7E7E7E7E775
:10046400C10841004000012AEA0129CB022200010F
:1004740002240000012B0001260002270000012CA9
:010484000077
:0A0552008FE7E5E630E1FBAFE7229A
:0204D100AE0576
:1004D300C2E9120552AD07AF06120552D2E9AF05C4
:0104E30022F6
:0C054500C2E9120552E4FF120552D2E98F
:010551002287
:0603DB008B178A18891936
:1003E100C2E9120552AE07E4FDEDC3951A5017E4B8
:1003F100FF120552AB17AA18A9198D82758300EF58
:0A0401001201B90D80E3D2E9AF0645
:01040B0022CE
:0603A9008B128A13891477
:1003AF00C2E9120552AE07E4FDEDC395155018AB27
:1003BF00120514E514AA137002051314F91201A003
:0B03CF00FF1205520D80E2D2E9AF06DC
:0103DA002200
:1004F600E4F520C208C2E87D0F7F201204D1D2E8BD
:0105060022D2
:10000E008E088F09C2E87D0E7F201204D17BFF7A05
:10001E000079037515057F2A1203A97B017A0079F1
:10002E00208509157FA01203A9D2E8A204720550FB
:04003E00FA0204F6C8
:03004B000202CEE0
:1002CE00C0E0C083C082C0D075D000C000C001C0E5
:1002DE0002C003C005C006C0077F071205458F2068
:1002EE003006307B017A007900751A207F61120387
:1002FE00DBE4FD7FE21204D1D2087F601205459047
:10030E000040EFF0D39420400AE4F0FD7FE21204A7
:10031E00D1C208300407E4FD7FE11204D130050795
:10032E00E4FD7FE11204D17D707F271204D1D00746
:10033E00D006D005D003D002D001D000D0D0D082CC
:05034E00D083D0E03275
:0600FB008B088A09890A46
:100101007C07C2E8D2EAD2B9C2E8D2EAE5101460AB
:100111000F146014146016240370155304F9801031
:100121005304FB43040280085304FD80004304048C
:10013100E50F600E1460101470135304F74304208C
:10014100800B5304D780065304DF430408AB0BAA8A
:100151000CA90D7515057F301203A9AB08AA09A9D1
:100161000A7515057F2A1203A97D017F221204D188
:10017100E4FD7F211204D1E4FD7F241204D1AD0EF0
:100181007F251204D1AD047F261204D17D017F3C6D
:0F0191001204D17D077F3D1204D1D2AF0204F6D4
:1004E400AB05AA047C037DE81201DBAD03AC020278
:0204F40004867C
:04048600AB05AA0414
:10048A00EF7802C333CE33CED8F9FF7C007D031256
:09049A0001EDAD03AC02020507FF
:10050700AB078C228D23752900C374FF9BF52A2224
:1005170075893185298C852A8AD2A9D2AFD28C22B6
:0E05370075893185298C852A8AD2A9D2AF22F6
:03000800D28C2275
:1005270075893185298C852A8AC2A9D2AFC28C22C6
:100353007593B77594FF750BFF750C00750D0375D9
:100363000E5C750F017510037BFF7A007903120091
:10037300FB7D667CEA7F0A7E1A120507120537D2D7
:10038300867F647E001204BDC2867F647E001204F1
:10039300BDD2867F647E001204BDC2867F647E0068
:0603A3001204BDD283220A
:10004E00900001E024BC603E14606A24FC6015241C
:10005E00F7603F241160030200FAE4F524F525F55C
:10006E0027F52822E4F524F525F527F528D28C7FEF
:10007E0064FE1204BD9000207434F0A3746FF0A3DC
:10008E0014F07F038061C28CE4F527F528F524F582
:10009E0025227F647E001204BD9000207434F0A3EC
:1000AE007452F0E527A3F0A3E528F07F047E00123A
:1000BE00000EB286229000207434F0752C01900050
:1000CE0040E0FFE52CC39F501E7400252CF582E402
:1000DE003400F583E0FE7420252CF582E43400F51F
:0D00EE0083EEF0052C80D77E0012000E225C
:10040C00120353209409752601852427852528304D
:10041C0008F1C208E4F520900000E0B430051200A9
:0F042C004E80E0900000E0B434D912004E80D42E
:03000B0002043BB1
:10043B00C0E0C0D00525E52570020524C39523E552
:10044B002495224009752B017524007525008529FB
:09045B008C852A8AD0D0D0E03251
:0B04A3007FFA7E001204AE7FFA7E009C
:0F04AE000000000000EF1F70011E144E70F222BC
:1004BD00AD07AC061204A31204A3ED1D70011C14AC
:0404CD004C70F1225C
:10024E0002040CE493A3F8E493A34003F68001F2B6
:10025E0008DFF48029E493A3F85407240CC8C333B1
:10026E00C4540F4420C8834004F456800146F6DF80
:10027E00E4800B0102040810204080900464E47EA8
:10028E00019360BCA3FF543F30E509541FFEE49375
:10029E00A360010ECF54C025E060A840B8E493A33C
:1002AE00FAE493A3F8E493A3C8C582C8CAC583CA67
:1002BE00F0A3C8C582C8CAC583CADFE9DEE780BE1F
:010485000076
:1001A000BB010689828A83E0225002E722BBFE025D
:0901B000E32289828A83E4932290
:1001B900F8BB010DE58229F582E5833AF583E8F07C
:1001C900225006E92582C8F622BBFE05E92582C828
:0201D900F22210
:1001DB00EF8DF0A4A8F0CF8CF0A428CE8DF0A42E38
:0201EB00FE22F2
:1001ED00BC000BBE0029EF8DF084FFADF022E4CCF6
:1001FD00F875F008EF2FFFEE33FEEC33FCEE9DECBF
:10020D00984005FCEE9DFE0FD5F0E9E4CEFD22ED04
:10021D00F8F5F0EE8420D21CFEADF075F008EF2F4E
:10022D00FFED33FD4007985006D5F0F222C398FD3F
:05023D000FD5F0EA22DC
:00000001FF
