:030000000209EF03
:0C09EF00787FE4F6D8FD75812E020A36F0
:050D4300E7E7E7E7E728
:100C4700C10841004000012CEA012BCB0222000120
:100C570002260000012D0001280002290000012EB4
:010C6700008C
:0A0D39008FE7E5E630E1FBAFE722AB
:020CC800AE0577
:100CCA00C2E9120D39AD07AF06120D39D2E9AF05E7
:010CDA0022F7
:0C0D2C00C2E9120D39E4FF120D39D2E9C2
:010D38002298
:060BBC008B178A1889194D
:100BC200C2E9120D39AE07E4FDEDC3951A5017E4E0
:100BD200FF120D39AB17AA18A9198D82758300EF80
:0A0BE2001209660D80E3D2E9AF06A8
:010BEC0022E6
:060B8A008B128A1389148E
:100B9000C2E9120D39AE07E4FDEDC395155018AB4F
:100BA000120514E514AA137002051314F912094D65
:0B0BB000FF120D390D80E2D2E9AF0604
:010BBB002217
:100CED00E4F520C208C2E87D0F7F20120CC8D2E8BF
:010CFD0022D4
:100B56008E088F09C2E87D0E7F20120CC87BFF7AB3
:100B66000D79437515057F2A120B8A7B017A007968
:100B7600208509157FA0120B8AD2E8A204720550BF
:040B8600FA020CED76
:03004B00020A7B2B
:100A7B00C0E0C083C082C0D075D000C000C001C030
:100A8B0002C003C005C006C0077F07120D2C8F20C4
:100A9B003006307B017A007900751A207F61120BCA
:100AAB00BCE4FD7FE2120CC8D2087F60120D2C90C3
:100ABB000040EFF0D39420400AE4F0FD7FE2120CEB
:100ACB00C8C208300407E4FD7FE1120CC8300507EB
:100ADB00E4FD7FE1120CC87D707F27120CC8D00794
:100AEB00D006D005D003D002D001D000D0D0D08218
:050AFB00D083D0E032C1
:0608A8008B088A09890A91
:1008AE007C07C2E8D2EAD2B9C2E8D2EAE5101460F7
:1008BE000F146014146016240370155304F980107D
:1008CE005304FB43040280085304FD8000430404D8
:1008DE00E50F600E1460101470135304F7430420D8
:1008EE00800B5304D780065304DF430408AB0BAAD6
:1008FE000CA90D7515057F30120B8AAB08AA09A934
:10090E000A7515057F2A120B8A7D017F22120CC8EB
:10091E00E4FD7F21120CC8E4FD7F24120CC8AD0E3D
:10092E007F25120CC8AD047F26120CC87D017F3CBA
:0F093E00120CC87D077F3D120CC8D2AF020CED22
:100CDB00AB05AA047C037DE8120988AD03AC0202C4
:020CEB000C6992
:040C6900AB05AA0429
:100C6D00EF7802C333CE33CED8F9FF7C007D03126B
:090C7D00099AAD03AC02020CA0BF
:100CA0008C228D23C3E49FF525E49EF524F52BE5E6
:040CB00025F52C22D8
:100CFE00758931852B8C852C8AD2A9D2AFD28C22C4
:0E0D1E00758931852B8C852C8AD2A9D2AF2203
:030D4800D28C2228
:100D0E00758931852B8C852C8AC2A9D2AFC28C22D3
:100B00007593D77594F3750BFF750C0D750D4375C3
:100B10000E5C750F017510037BFF7A0D7943120887
:100B2000A87D667CEA7F0A7E1A120CA0120D1ED2E6
:100B3000857F647E00120CB4C2857F647E00120C37
:100B4000B4D2857F647E00120CB4C2857F647E00BF
:060B5000120CB4D2832256
:10080000900001E024BC603E14606524FC60172465
:10081000F76041241160030208A7E4F526F527F5E7
:1008200029F52AC29222E4F526F527F529F52A9022
:1008300000207434F0A3746FF0A314F07F037E00E3
:10084000120B56D29222C28CE4F529F52AF526F530
:1008500027C292229000207434F0A37452F0E5294C
:10086000A3F0A3E52AF07F047E00120B56B2852286
:100870009000207434F0752E01900040E0FFE52ECA
:10088000C39F501E7400252EF582E43400F583E0EA
:10089000FE7420252EF582E43400F583EEF0052E5B
:0808A00080D77E00120B5622E6
:100BED00120B00A294929330940975280185262941
:100BFD0085272A3008EDC208E4F520900000E0FCBE
:100C0D00B4300512080080DBECB434D71208008034
:010C1D00D204
:03000B00020C1EC6
:100C1E00C0E0C0D00527E52770020526C39523E561
:100C2E002695224009752D01752600752700852B06
:090C3E008C852C8AD0D0D0E03264
:0B0C86007FFA7E00120C917FFA7E00C6
:0F0C91000000000000EF1F70011E144E70F222D1
:100CB400AD07AC06120C86120C86ED1D70011C14D7
:040CC4004C70F1225D
:1009FB00020BEDE493A3F8E493A34003F68001F21A
:100A0B0008DFF48029E493A3F85407240CC8C333FC
:100A1B00C4540F4420C8834004F456800146F6DFCB
:100A2B00E4800B0102040810204080900C47E47E08
:100A3B00019360BCA3FF543F30E509541FFEE493C0
:100A4B00A360010ECF54C025E060A840B8E493A387
:100A5B00FAE493A3F8E493A3C8C582C8CAC583CAB2
:100A6B00F0A3C8C582C8CAC583CADFE9DEE780BE6A
:010C6800008B
:10094D00BB010689828A83E0225002E722BBFE02A8
:09095D00E32289828A83E49322DB
:10096600F8BB010DE58229F582E5833AF583E8F0C7
:10097600225006E92582C8F622BBFE05E92582C873
:02098600F2225B
:10098800EF8DF0A4A8F0CF8CF0A428CE8DF0A42E83
:02099800FE223D
:10099A00BC000BBE0029EF8DF084FFADF022E4CC41
:1009AA00F875F008EF2FFFEE33FEEC33FCEE9DEC0A
:1009BA00984005FCEE9DFE0FD5F0E9E4CEFD22ED50
:1009CA00F8F5F0EE8420D21CFEADF075F008EF2F9A
:1009DA00FFED33FD4007985006D5F0F222C398FD8B
:0509EA000FD5F0EA2228
:00000001FF
